:020000040800F2
:10000000600600200D0200084B0200084D020008A7
:100010004F020008510200085302000800000000CF
:100020000000000000000000000000005502000871
:100030005702000800000000590200085B02000897
:100040005D0200085D0200085D0200085D02000814
:100050005D0200085D0200085D0200085D02000804
:100060005D0200085D0200085D0200085D020008F4
:100070005D0200085D0200085D0200085D020008E4
:100080005D0200085D0200085D0200085D020008D4
:100090005D0200085D0200085D0200085D020008C4
:1000A0005D0200085D0200085D0200085D020008B4
:1000B0005D0200085D0200085D0200085D020008A4
:1000C0005D0200085D0200085D0200085D02000894
:1000D0005D0200085D0200085D0200085D02000884
:1000E0005D020008B90300085D0200085D02000817
:1000F0005D0200085D0200085D0200085D02000864
:100100005D0200085D0200085D0200085D02000853
:100110005D0200085D0200085D0200085D02000843
:100120005D0200085D0200085D0200085D02000833
:100130005D0200085D0200085D0200085D02000823
:100140005D0200085D0200085D0200085D02000813
:100150005D0200085D0200085D0200085D02000803
:100160005D0200085D0200085D0200085D020008F3
:100170005D0200085D0200085D020008000000004A
:100180005D0200085D02000800F002F800F02EF8A1
:100190000AA090E8000C82448344AAF10107DA45E2
:1001A00001D100F023F8AFF2090EBAE80F0013F006
:1001B000010F18BFFB1A43F0010318477C0B000026
:1001C0008C0B00000023002400250026103A28BFD5
:1001D00078C1FBD8520728BF30C148BF0B607047B9
:1001E0001FB500F09CFD1FBD10B510BD00F057F805
:1001F0001146FFF7F5FF00F07DFD00F075F803B440
:10020000FFF7F2FF03BC00F07DF800001748184923
:10021000184B99423CBF50F8042B41F8042BF8D3FB
:10022000154B16494FF000028B4238BF43F8042BA0
:10023000FAD3DFF84C00016841F470010160BFF3AC
:100240004F8FBFF36F8F0F480047FEE7FEE7FEE7D3
:10025000FEE7FEE7FEE7FEE7FEE7FEE7FEE700005B
:1002600009480A490A4A0B4B70470000480D00082C
:100270000000002000000020000000206006002098
:1002800088ED00E089010008600000206006002081
:10029000600200206002002070477047704775467A
:1002A00000F02CF8AE4605006946534620F00700E2
:1002B000854618B020B5FFF7D3FFBDE820404FF0CA
:1002C00000064FF000074FF000084FF0000BAC465F
:1002D000ACE8C009ACE8C009ACE8C009ACE8C009AA
:1002E00021F007018D46704710B50446AFF300803A
:1002F0002046BDE81040FFF782BF0000004870476D
:100300000000002001491820ABBEFEE726000200D5
:100310007047000080B582B00190019801280BD190
:10032000FFE700F0E7FB00F087FB43F60000C4F2B4
:10033000010000F075FC10E0019802280BD1FFE7E6
:1003400000F058FC00F0ECFB44F20040C4F2000066
:1003500000F066FC00E0FFE7FFE702B080BD0000B0
:1003600080B582B040F20841C4F20101086840F44F
:100370008020086040F20041C4F20101086840F4A6
:100380008020086040F20441C4F20101086840F492
:100390008020086040F21441C4F20101086840F472
:1003A000802008602920019000F06AFC019800215B
:1003B00000F07EFC02B080BD40F21441C4F20101A5
:1003C000086840F48020086042F60C01C4F2000185
:1003D000086820F480700860086820F400700860E5
:1003E0007047000083B0029001910020009042F617
:1003F0005000C4F2000000900299009800EB8100C8
:10040000009001980099086003B0704741F25800CD
:10041000C4F202000068C00000280AD4FFE741F2DD
:100420005800C4F20200016841F080510160006888
:10043000FFE747F20000C4F200000068C005002892
:1004400014D4FFE747F20001C4F20001086840F449
:1004500080700860FFE747F20000C4F20000006807
:10046000C005002801D4FFE7F5E7FFE741F290015E
:10047000C4F20201086820F005000860086840F432
:1004800080300860086820F480300860FFE741F29F
:100490009000C4F2020000688007002809D4FFE73A
:1004A00041F29001C4F20201086840F001000860C6
:1004B000EDE741F29001C4F20201086820F44070B7
:1004C0000860086840F480700860086840F40040E4
:1004D000086041F25801C4F20201086820F080501F
:1004E0000860704742F62401C4F20001CA20086087
:1004F000532008607047000042F62401C4F2000156
:10050000002008607047000080B5FFF77FFFFFF70D
:10051000E9FF42F60C01C4F20001086840F08000D7
:100520000860FFE742F60C00C4F2000000684006D5
:10053000002801D4FFE7F5E702201F21012217233D
:1005400000F072F84FF48000072105220A2300F022
:10055000BBF842F60C01C4F20001086820F08000EC
:100560000860FFE742F60C00C4F200000068800655
:10057000002801D4FFE7F5E7FFF7BEFF012043F2B3
:10058000F221FFF72FFF80BD80B582B0FFF7AAFFF1
:1005900042F60801C4F200010191086820F480705D
:1005A0000860086820F400700860086820F4805033
:1005B0000860086820F400500860FFE742F60C006D
:1005C000C4F2000001680020C907009061B9FFE78C
:1005D00042F60C00C4F20000006800F002010120A5
:1005E00080EA51000090FFE70098C00708B1FFE7DC
:1005F000E4E742F61C01C4F20001086840F0300054
:100600000860086848F20002C8F2800210430860DF
:1006100042F62001C4F20001086840F08030086012
:10062000FFF76AFF02B080BD8AB009900891079277
:10063000069342F60401C4F2000108680020086035
:1006400008984CF6CD42CCF6CC42A0FB0230C00854
:1006500005900898A0FB02C3DB0803EB8303A0EB23
:10066000430004900798A0FB0230C008039007984D
:10067000A0FB02C3DB0803EB8303A0EB4300029063
:100680000698A0FB0230C00801900698A0FB023239
:10069000D20802EB8202A0EB420000900198000514
:1006A000009A40EA0240099A40EA4230039A40EA3E
:1006B0000230029A40EA0220059A40EA0210049AA7
:1006C000104308600AB070478AB0099008910792F9
:1006D000069342F60001C4F2000108680020086099
:1006E00008984CF6CD42CCF6CC42A0FB0230C008B4
:1006F00005900898A0FB02C3DB0803EB8303A0EB83
:10070000430004900798A0FB0230C00803900798AC
:10071000A0FB02C3DB0803EB8303A0EB43000290C2
:100720000698A0FB0230C00801900698A0FB023298
:10073000D20802EB8202A0EB420000900998059AD1
:1007400040EA0250049A40EA0240039A40EA02302A
:10075000029A40EA0220019A40EA0210009A1043ED
:1007600008600AB07047000041F24C01C4F2020177
:10077000086840F0010008604FF09041086820F0E0
:1007800003000860086840F0020008602021C4F6F9
:100790000001086820F00F000860086840F00200BF
:1007A00008600C21C4F60001086820F0030008600E
:1007B0007047000083B042F20001C4F202010868F1
:1007C00020F007000860086840F00200086041F26D
:1007D0000001C4F20201086840F480700860FFE77D
:1007E00041F20000C4F2020000684005002801D474
:1007F000FFE7F5E71020029041F20401C4F2020184
:10080000086820F0F8500860029A086840EA026020
:10081000086041F20001C4F20201086820F0807013
:100820000860FFE741F20000C4F2020000688001A6
:10083000002801D5FFE7F5E741F20C01C4F20201FF
:100840000191086820F003000860086840F0020089
:1008500008600868142262F30E200860086801220C
:1008600062F306100860086820F0C060086008683D
:1008700040F08070086041F20001C4F20201086893
:1008800040F080700860FFE741F20000C4F202000F
:1008900000688001002801D4FFE7F5E741F2080174
:1008A000C4F20201086820F003000860086840F004
:1008B00003000860FFE741F20800C4F2020000688C
:1008C00000F00C000C2801D0FFE7F4E741F208012A
:1008D000C4F20201086820F0F0000860086820F403
:1008E000E0600860086820F46050086041F2000190
:1008F000C4F20201086820F080600860FFE741F25E
:100900000000C4F2020000684001002801D5FFE7A2
:10091000F5E741F21001C4F202010091086820F4E9
:10092000FE400860086840F4C0500860086840F461
:1009300000300860086840F48030086041F200012F
:10094000C4F20201086840F080600860FFE741F2ED
:100950000000C4F2020000684001002801D4FFE753
:10096000F5E741F28801C4F20201086820F4400072
:10097000086041F26001C4F20201086840F400100E
:10098000086003B07047000041F25801C4F2020150
:10099000086840F00800086040F62042C4F20002F7
:1009A000106840F00100106040F60041C4F2000100
:1009B000086820F01000086040F62843C4F20003E5
:1009C0002720186040F62C43C4F2000340F2CF7099
:1009D000186040F61843C4F2000318684FF68F7C85
:1009E000CFF6FE7C00EA0C001860186840F020008A
:1009F0001860186840F040001860186840F008005F
:100A00001860106820F008001060106840F00400C2
:100A1000106040F64442C4F20002106840F4004006
:100A2000106040F63442C4F200026420106008688E
:100A300040F001000860704741F24C01C4F202012D
:100A4000086840F00200086040F20042C4F600026C
:100A5000106820F440501060106840F4005010609E
:100A600040F22041C4F60001086820F07060086080
:100A7000086840F0E0600860106820F440401060B2
:100A8000106840F400401060086820F07040086072
:100A9000086840F0E040086040F20841C4F60001F8
:100AA000086840F440500860086840F4404008601E
:100AB00040F20441C4F60001086820F040000860DC
:100AC000086820F08000086040F20C41C4F6000184
:100AD000086820F440500860086840F480500860BE
:100AE000086820F440400860086840F480400860CE
:100AF0007047000041F26001C4F20201086840F44E
:100B00008040086041F28801C4F20201086820F0C8
:100B100003000860086840F00100086070470000AA
:100B200080B541F24C01C4F20201086840F00100B6
:100B300008604FF0904EDEF8000020F03000CEF854
:100B40000000DEF8000040F02000CEF8000040F287
:100B5000200CC4F6000CDCF8000020F47060CCF827
:100B60000000DCF8000040F4E060CCF8000008234E
:100B7000C4F60003186840F0300018600422C4F680
:100B80000002106820F0040010600C21C4F600017F
:100B9000086820F030000860086840F01000086025
:100BA000DEF8000020F0C000CEF80000DEF8000003
:100BB00040F08000CEF80000DCF8000020F4704027
:100BC000CCF80000DCF8000040F4E040CCF8000075
:100BD000186840F0C0001860106820F0080010602D
:100BE000086820F0C0000860086840F04000086015
:100BF00080BD000041F25801C4F20201086840F4CF
:100C00000030086041F28801C4F20201086820F057
:100C10000C000860086840F004000860704700009D
:100C200081B000900099086820F0010008600099E8
:100C3000086800F0805008600099086800F480504F
:100C400008600099086820F400400860009948682E
:100C500020F440504860009942F28D00C86000992D
:100C6000086840F0080008600099086840F0040037
:100C700008600099086840F00100086001B0704702
:100C800081B08DF803009DF9030000280ED4FFE722
:100C90009DF9031001F01F02012090404A094EF215
:100CA0000011CEF2000141F82200FFE701B07047C9
:100CB00082B08DF8070000919DF9070000280AD442
:100CC000FFE7009800019DF907104EF20042CEF2B6
:100CD000000288540BE0009800019DF8071001F015
:100CE0000F014EF61452CEF200028854FFE702B014
:100CF0007047000080B582B000200190FFF75AFDD8
:100D0000FFF702FCFFF72CFBFFF73EFC0220FFF78A
:100D100001FBFFF729FDFFF737FEFFE7FEE7F1EEE6
:100D2000100A4FF6FF71C0F2C03120EA010040F016
:100D30004070E1EE100A7047480D000800000020E6
:080D400060060000C401000878
:040000050800018965
:00000001FF
