:020000040800F2
:10000000B8060020B9020008F7020008F90200084B
:10001000FB020008FD020008FF02000800000000CB
:1000200000000000000000000000000001030008C4
:100030000303000800000000050300080703000890
:100040000903000809030008090300080903000860
:100050000903000809030008090300080903000850
:100060000903000809030008090300080903000840
:100070000903000809030008090300080903000830
:100080000903000809030008090300080903000820
:100090000903000809030008090300080903000810
:1000A0000903000809030008090300080903000800
:1000B00009030008090300080903000809030008F0
:1000C00009030008090300080903000809030008E0
:1000D00009030008090300080903000809030008D0
:1000E0000903000841150008090300080903000876
:1000F00009030008090300080903000809030008B0
:10010000090300080903000809030008090300089F
:10011000090300080903000809030008090300088F
:10012000090300080903000809030008090300087F
:10013000090300080903000809030008090300086F
:10014000090300080903000809030008090300085F
:10015000090300080903000809030008090300084F
:10016000090300080903000809030008090300083F
:100170000903000809030008090300080000000043
:10018000090300080903000800F002F800F084F8F1
:100190000AA090E8000C82448344AAF10107DA45E2
:1001A00001D100F079F8AFF2090EBAE80F0013F0B0
:1001B000010F18BFFB1A43F0010318477C2F000002
:1001C0008C2F00000023002400250026103A28BFB1
:1001D00078C1FBD8520728BF30C148BF0B607047B9
:1001E0006E2900F07381702900F0CB82662902F03D
:1001F0000087652902F0FD86672902F0FA866129E9
:1002000002F0F98603681B0A28BF41F080016929C2
:1002100000F02081642900F01D81752900F01A8109
:100220006F2900F05982782900F09782E92900F0BF
:10023000F381E42900F0F081F52900F0ED81EF2948
:1002400000F05682F82900F096820368DB0928BF87
:1002500041F08001632900F0A087732900F0A58791
:10026000E32900F0B087F32900F0B587002070473C
:100270001FB502F0B1FE01F007F8040000200021D4
:1002800002F094FE401C60600020002102F078FE25
:10029000E0601FBD10B510BD00F0C9FF1146FFF7AB
:1002A000E7FF01F09FFE01F0A5F803B4FFF7F2FFAE
:1002B00003BC01F0EBF8000017481849184B9942AD
:1002C0003CBF50F8042B41F8042BF8D3154B1649CA
:1002D0004FF000028B4238BF43F8042BFAD3DFF80B
:1002E0004C00016841F470010160BFF34F8FBFF310
:1002F0006F8F0F480047FEE7FEE7FEE7FEE7FEE7E9
:10030000FEE7FEE7FEE7FEE7FEE7000009480A49D0
:100310000A4A0B4B704700007432000800000020AE
:100320000000002000000020B806002088ED00E05A
:1003300089010008B8000020B8060020B80200209B
:10034000B80200200FB4044910B503AA029800F0C7
:10035000EFF810BC5DF814FB600000200FB41CB572
:10036000084B06AA7B4469460090059800F0C7F840
:1003700004460020694600F0D5F820461CBC5DF814
:1003800014FB0000BD01000070477047704770B556
:10039000044685690068C10601D5302600E02026A4
:1003A000C00707D070BDD4E9012130469047206ACC
:1003B000401C20626D1EF6D570BD70B5044685697F
:1003C0000078C00707D170BDD4E9012120209047F3
:1003D000206A401C20626D1EF6D570BD09684A0572
:1003E00001D540B27047C905FCD500B27047096815
:1003F0004A0501D5C0B27047C905FCD580B2704727
:1004000070B50C460546012A05D02878800600D52F
:10041000EA69002302E0012305E05B1C934202D25B
:10042000E05C0028F9D1A869E618C01AA861286A1A
:10043000184428622846FFF7AAFF04E0D5E9012105
:1004400014F8010B9047B442F8D32846FFF7B5FFE4
:1004500070BD00002DE9F0410646002410687529A2
:10046000314616A510D0FFF7B9FF002802DA404246
:1004700013A507E031688A0701D512A502E04907F4
:1004800004D511A5012401E0FFF7B1FF00210A22E4
:1004900006F1240709E0B0FBF2FCB0FBF2F302FB2B
:1004A0001C00303078541846491C0028F3D12346EC
:1004B0002A463046BDE8F04100F07ABA000000005C
:1004C0002D0000002B0000002000000011680268D1
:1004D000006A530501D508700AE0D30501D50880EC
:1004E00006E0130603D5C217C1E9000200E0086068
:1004F0000120704701694A1C02610878704700B505
:100500008FB0CDE901310021059105497944CDE94C
:1005100003101146684600F03FF90FB000BD00001F
:10052000E5FFFFFF0A6802F8010B0A607047000050
:10053000074B70B50D467B44FFF7E1FF04462846A4
:1005400000F04DFE10B14FF0FF3070BD204670BD81
:10055000831A00002DE9FF5F15468A460446DFF83E
:10056000AC80F8440027D8E900103E46CDE90010E1
:1005700010E03AF816106A4602A800F034FE411C5A
:1005800007D02178890603D5E269391891420DD840
:100590000744761C2078800602D5E069B84205DD64
:1005A000AE42E6DB3AF816000028E2D1A069C01B93
:1005B000A0612046FFF7EBFED8E90010CDE900105E
:1005C000002017E03AF818106A4602A800F00BFE67
:1005D000B0F1FF3F81460BD000250DF1080B05E07F
:1005E000D4E901211BF8050090476D1C4D45F7D358
:1005F00008F10100B0428046E4DB206A3844206202
:100600002046FFF7DAFE00F003B80000962A00004B
:100610003FBCBDE8C09F00002DE9F0418046D21DDF
:1006200022F007020025D2E90002F52915A614D010
:10063000011E72F1000106DA0023D0EB030063EB28
:10064000020211A608E0D8F800108B0701D50FA60A
:1006500002E0490701D50EA601251146002408F144
:10066000240704E000F05FF930323A55641C50EA88
:100670000102F7D12B46324621464046BDE8F04103
:1006800000F096B9000000002D0000002B000000D3
:100690002000000030B4002100F1240408E002F042
:1006A0000705D208303542EA4372DB086554491C1D
:1006B00052EA0305F3D10468002310A2250708D5E8
:1006C00004F020040C4304D0C46901230CA2641E6E
:1006D000C46130BC00F06CB910B504462146106806
:1006E000FFF785FE02462046BDE810400023D1E713
:1006F000D21D22F00701D1E90023CBE70000000062
:1007000030000000F0B40D460188090502D5214CE7
:100710007C4402E01F4C7C440E34002100F124068E
:1007200008E002F00F071209E75D42EA03721B09B5
:100730007754491C52EA0307F3D1027800231207C9
:1007400004D5702D06D009B1022311342246F0BC25
:1007500000F02EB901231034F8E770B504460D46B9
:1007600021461068FFF743FE024629462046BDE8B1
:1007700070400023C6E7D21D22F00703D3E900230F
:10078000C0E70368126843F0200303600823C361D5
:100790000023B7E7F02800002DE9F05F8946044602
:1007A0004FF0000ADFF874B1FB44C0F820A02046E7
:1007B000E1688847002874D0252806D0D4E90121B3
:1007C0009047206A401C2062F1E700265F462046E1
:1007D000E16888472028054607DB312D05D27819C6
:1007E00010F8200C08B10643F1E7B00701D526F058
:1007F0000406C4F81CA00027C4F818A02A2D09D0AC
:10080000284602F0B5FB38B304EB8708303DC8F842
:10081000185019E059F8041B204604EB8702916137
:10082000E1688847012F054618D1E069002820DAE1
:1008300026F020061DE0D8F8180000EB800005EB3C
:1008400040003038C8F818002046E168884705465F
:1008500002F08EFB0028EED1012F0AD02E2D08D1F8
:100860002046E16888477F1C0546022F46F0200697
:10087000C4DBA069002803DA404246F00106A0610B
:10088000F00701D026F010066C2D0BD0682D09D092
:100890004C2D39D06A2D35D0742D35D07A2D33D0EA
:1008A00016E038E0E1682F4620468847B842054602
:1008B00009D16C2F26D04FF48060E16806432046B2
:1008C0008847054604E06C2F1AD04FF48070064329
:1008D0000DB3A5F14100192802D8203546F4006671
:1008E0004A462946204626604E46FFF779FC80B1ED
:1008F00001280BD0F61D26F0070000F1080956E785
:100900004020E4E78020D8E70020D6E706F104097C
:100910004DE7284652E7206A00F002B88028000020
:1009200030BCBDE8C09F30B5B0F10A0271F10003E0
:100930004FEA900E4EEA817EB0EB0E0061EB910122
:100940004FEA101E4EEA017E10EB0E0041EB111132
:100950004FEA102E4EEA016E10EB0E0041EB112112
:100960004FEA104E4EEA014E10EB0E0041EB1141E2
:10097000401841F100014FEAD00040EA41704FEACF
:10098000D1014FEA810444EA907410EB800544EBF6
:1009900001046D1944EB0404521BA3414FF0000302
:1009A00048BF0A3200D530BD401C41F1000130BDC6
:1009B0002DE9F0470D4699469246044600F1240879
:1009C0000168880604D5E06921F01001216000E08B
:1009D0000120A84201DD471B00E00027A1697A1928
:1009E00002EB0900081AA0612078C00602D4204654
:1009F000FFF7CDFC002608E0D4E901211AF8060033
:100A00009047206A401C761C20624E45F4DB20781B
:100A1000C0060AD52046FFF7BAFC06E0D4E901215A
:100A200030209047206A401C2062381EA7F1010741
:100A3000F4DC07E0D4E9012118F805009047206AAA
:100A4000401C2062281EA5F10105F3DC2046FFF7BB
:100A5000B4FC2078000602D50220BDE8F087012012
:100A6000FBE72DE9FF4F0C461E464FF0FF378BB0DA
:100A7000D2E90001DDF860800A908A46C1F30A5588
:100A800005B93D46002108464FF00000BAF1000FBD
:100A900000F4400005DA00EB80004FF4400101EA69
:100AA00050004FEA9059B9F1010F00DDB9460A989C
:100AB00050EA4A000ED044F61050A5F2FF354543E7
:100AC0002F14B8F1000F1ED07542291E1EDDC9F18A
:100AD00000021CE0B8F1010F4FF0000001D03021FE
:100AE00003E0F24305E02154401CB042FBDB3046FA
:100AF0000022002121540B99C1F80880C1E900208F
:100B00000FB000F0BCB9BD1B6D1CDEE74A4600DA31
:100B1000694206A800F0FCFB06AB93E8070003ABB4
:100B200083E8070050460A9901F042FE8DE807006D
:100B3000A0F500501F3800900398002D0ADD42F206
:100B40001F014A460844002303A90390684602F0A7
:100B5000ABF809E0A0F500504A461F38002303A96E
:100B60000390684602F0B5F88DE807000004000C19
:100B700003D04FF0FF30410800E01046B8F1000FFD
:100B800003D00022009215461EE0751E05D4FFF723
:100B9000CAFE303262556D1EF9D5B34601220843B4
:100BA00002D000227F1C04E02078302801D10022EE
:100BB0007F1E002A099784D01DE0112D07DAFFF768
:100BC000B2FE303262556D1C50EA0102F5D1084385
:100BD00002D00098C8B10EE00021681E05E0235C39
:100BE000625C63542254401E491C8142F7DBAB46D1
:100BF000A81B401E0990002004F80B000B98099ACE
:100C0000C0F80880C0E9002B7AE711264FF00008F1
:100C100057E72DE9F04F88460446D21D22F0070120
:100C200091B0D1E90001CDE90A0102F089F902464B
:100C30000B98C00F01D02D2007E02068810701D557
:100C40002B2002E0202101EAC000032A099001D0F4
:100C5000072A05DB03464146204600F019FB0BE15D
:100C60002078800601D5E06900E00620B8F1650F24
:100C7000814606D0B8F1660F18D0B8F1670F70D171
:100C800031E00020B9F1110F009001DB112301E0E8
:100C900009F101030AAA01A90CA8FFF7E2FEDDE9A8
:100CA0000C70002609F10105834647E001204B4600
:100CB00000904FF000470AAA01A90CA8FFF7D1FE47
:100CC000DDE90DB00C995D46002610B909F101006F
:100CD0000D18B9EB050003D4C0F1FF3609F1010589
:100CE000A5EB09002BE0B9F1010F01DA4FF0010982
:100CF0000020B9F1110F0090484601DD112300E0FA
:100D000003460AAA01A90CA8FFF7ABFEDDE90C70A7
:100D10004D4600268346207800070AD4AB4500DA0A
:100D20005D4601A8012D04DD411911F8011C30298F
:100D300007D04F4502DA17F1040F04DA012082468A
:100D40000FE06D1EEEE7002F02DCED1B3E4403E0DA
:100D5000781CA84200DD7D1CB81B00F1010A4FF091
:100D600000472078000703D4AA4501DB4FF0FF3A83
:100D70000021B7F1004F0DF143088DF8431024D046
:100D800002202B23002F01DA7F422D230A21021E8D
:100D9000A0F1010000DC5FB197FBF1FC97FBF1F2E1
:100DA00001FB1C7C17460CF1300C08F801CDEEE776
:100DB000A8F1010003702188090501D5452100E053
:100DC0006521A0F1010800F8011C09980FA9A1EB09
:100DD0000807FF1D00B10120411901EBEA70A1696C
:100DE0003844081A401EA0612078C00602D420466C
:100DF000FFF7CDFA099828B1D4E901219047206A7C
:100E0000401C20622078C00622D52046FFF7BFFA9A
:100E10001EE0002E04DBB34502DD01A8805D00E08A
:100E20003020D4E901219047206A401C2062761CC2
:100E3000AAF101005FEA000A0AD100F025FAC068B1
:100E40000168405CD4E901219047206A401C20627F
:100E5000281EA5F10105DCDC07E0D4E9012118F822
:100E6000010B9047206A401C2062381EA7F1010741
:100E7000F3DC2046FFF7A1FA032011B041E630BCB5
:100E8000BDE8C08F2DE9F04F04460D46D21D22F07B
:100E9000070089B0D0E900974846394602F050F87B
:100EA0000246F80F01D02D2307E02068810701D505
:100EB0002B2302E0202101EAC0038DF820300BB182
:100EC000012000E00020032A824601D0072A04DB2B
:100ED0002946204600F0DCF93FE12078800601D465
:100EE0000D2500E0E569C7F30A560D2D49DA00210A
:100EF0004FEA175B08464FF00000002F00F4400057
:100F000007DA00EB80004FF4400100EBD07001EAFB
:100F100060008115012901DD4FF0FF3100224FEA09
:100F2000850CBCF1180F06D31346ACF118004FF036
:100F30008052C24003E04FF4801323FA0CF30CF10B
:100F40000C0CBCF1200F04D3ACF1200C09FA0CF00E
:100F500001E007FA0CF000294FF0004801DD18B954
:100F60000FE00ED140450CD319EB02095F4121B9C6
:100F7000404502D19F4329EA0209BBEB175F00D02D
:100F8000761C2088000502D57B48784402E07A4828
:100F90007844193808AA302302F80A30037C0AF191
:100FA0000101002E0AF1020A53546A4602DC4FF096
:100FB000300101E04FF031014FF001088DF80010D1
:100FC00002D0A6F2FF3603E059EA470100D06B4E8B
:100FD000002D02DC2178090704D54FF002082E21EC
:100FE0008DF80110C44600210BE0C7F303433F0115
:100FF000C35C491C6D1E02F80830052908F1010880
:1010000001DA002DF1DC00210CE000EB1973491C22
:101010001B786D1E082902F808304FEA091908F1FB
:10102000010801DA002DF0DC21688B0602D516E0FC
:10103000A8F10108E04505DD02EB080313F8013CC7
:10104000302BF5D0B8F1000F09DD02EB080313F8DF
:10105000013C2E2B03D1090701D4A8F10108002D72
:1010600005DD3E2102F808106D1E08F10108407CE4
:10107000002E02F8080008F1010804DA2D2076425B
:1010800002F8080002E02B2002F808000A214FF4C1
:101090007A70864208F101080BDB96FBF0F33033DF
:1010A00002F8083096FBF0F308F1010800FB136624
:1010B00001E0642E0CDB642096FBF0F3303302F881
:1010C000083096FBF0F308F1010800FB136601E01D
:1010D0000A2E06DB96FBF1F0303002F8080008F12A
:1010E000010896FBF1F001FB1060303002F80800B7
:1010F000A16908F1010808EB050202EB0A00081AD1
:10110000A0612078C00602D42046FFF740F9216A8A
:1011100008AE01EB0A00206204E0D4E9012116F8D0
:10112000010B9047BAF1010AF7D22078C00602D528
:101130002046FFF72CF96E4609E016F8010B3E2811
:101140000FD0D4E901219047206A401C2062B8F1F9
:101150000108F2D22046FFF730F909B0032000F071
:101160000FB8206A2844206203E0D4E9012130202E
:1011700090476D1EEBD3F8E7C220000002FCFFFF92
:1011800030BCBDE8C08F10B5436913B1AFF3008028
:1011900001E0FFF735F9012010BD127800F12401BC
:1011A0000A7000224A700122EDE711684FF0FF3209
:1011B000E9E710B5436913B1AFF3008001E0FFF731
:1011C000C9F9012010BD128800F124018284002297
:1011D000C2840122EDE711684FF0FF32E9E7007B9E
:1011E00000F0800070472DE9F04116460C46054698
:1011F00000F042F8036893F80101012807D0FF2CA2
:1012000012D8185D80B101202C70BDE8F081D3F8B0
:1012100007013246214603F20713C7182846BC4689
:10122000BDE8F041002360474FF0FF30EDE7754621
:1012300000F0EAF8AE4605006946534620F0070084
:10124000854618B020B5FFF761F8BDE820404FF0A3
:1012500000064FF000074FF000084FF0000BAC46BF
:10126000ACE8C009ACE8C009ACE8C009ACE8C0090A
:1012700021F007018D46704710B500F005F8001DFC
:1012800010BD00BF291D000000487047200000204D
:101290002DE9F0411F46044603260168072A01F4A0
:1012A000006004DB08B116A505E016A503E008B14F
:1012B00015A500E015A521F010002060A069C01E52
:1012C000A0610FB1401EA0612046FFF760F84FB14A
:1012D000D4E9012138469047206A401C2062C01C96
:1012E000206206E0206AFAE7D4E9012115F8010B33
:1012F0009047761EF8D22046FFF75FF8BDE8F081F0
:101300004E414E006E616E00494E4600696E6600A9
:101310002DE9F047814616468AB0354878440DC815
:101320008DE80D0032487844801C03AC0DC884E879
:101330000D0041F69B300844372190FBF1F290FB01
:10134000F1F5A5F1800501FB12041B3C02D56442B6
:10135000012000E00020DFF898A080460027FA4432
:10136000AAF1BE0A0EE0E0070AD03246684607EB53
:10137000470101230AEB810101F0ABFC8DE8070076
:1013800064107F1C002CEED1194F7F44AE3F19E052
:10139000E80715D007EB04100DF1180A90E80E00CD
:1013A0008AE80E00C068F04201D1981908903246D0
:1013B000012306A903A801F08CFC03AB83E8070016
:1013C0006D10641C002DE3D14FF0010332466946D5
:1013D000B8F1000F03A802D001F066FC01E001F0B3
:1013E00078FCC9E90001C9F808200AB0BDE8F08717
:1013F000C01D000010B50446AFF300802046BDE8D4
:101400001040FEF752BF0000004870470000002067
:1014100030B44FF0013C50F8042B51F8043BCCFAA7
:1014200052F4D51A20D1FCB950F8042B51F8043BE2
:10143000CCFA52F4D51A17D1B4B950F8042B51F89C
:10144000043BCCFA52F4D51A0ED16CB950F8042BE7
:1014500051F8043BCCFA52F4D51A05D1002CDAD05D
:1014600030BC4FF00000704729BAB1FA81F111F099
:101470001801D1F120008440F2D1CA40CB4012F0D3
:10148000FF0213F0FF0330BCD01A70470149182047
:10149000ABBEFEE7260002007047000080B582B0B8
:1014A0000190019801280BD1FFE700F03BFC00F010
:1014B000DBFB43F60000C4F2010000F0E3FC10E0A7
:1014C000019802280BD1FFE700F0ACFC00F040FCD3
:1014D00044F20040C4F2000000F0D4FC00E0FFE75A
:1014E000FFE702B080BD000080B582B040F2084145
:1014F000C4F20101086840F48020086040F2004115
:10150000C4F20101086840F48020086040F2044100
:10151000C4F20101086840F48020086040F21441E0
:10152000C4F20101086840F480200860292001907D
:1015300000F00AFD0198002100F01EFD02B080BD00
:1015400040F21441C4F20101086840F480200860B0
:1015500042F60C01C4F20001086820F480700860B3
:10156000086820F4007008607047000083B00290A3
:1015700001910020009042F65000C4F2000000905B
:101580000299009800EB8100009001980099086092
:1015900003B0704741F25800C4F202000068C00076
:1015A00000280AD4FFE741F25800C4F202000168A3
:1015B00041F0805101600068FFE747F20000C4F28B
:1015C00000000068C005002814D4FFE747F20001BE
:1015D000C4F20001086840F480700860FFE747F239
:1015E0000000C4F200000068C005002801D4FFE735
:1015F000F5E7FFE741F29001C4F20201086820F02C
:1016000005000860086840F480300860086820F42D
:1016100080300860FFE741F29000C4F202000068E9
:101620008007002809D4FFE741F29001C4F20201CB
:10163000086840F001000860EDE741F29001C4F253
:101640000201086820F440700860086840F4807067
:101650000860086840F40040086041F25801C4F294
:101660000201086820F080500860704742F62401AB
:10167000C4F20001CA2008605320086070470000CF
:1016800042F62401C4F20001002008607047000007
:1016900080B5FFF77FFFFFF7E9FF42F60C01C4F2C8
:1016A0000001086840F080000860FFE742F60C0087
:1016B000C4F2000000684006002801D4FFE7F5E707
:1016C00002201F210122172300F072F84FF480003E
:1016D000072105220A2300F0BBF842F60C01C4F2F0
:1016E0000001086820F080000860FFE742F60C0067
:1016F000C4F2000000688006002801D4FFE7F5E787
:10170000FFF7BEFF012043F2F221FFF72FFF80BD5C
:1017100080B582B0FFF7AAFF42F60801C4F20001CB
:101720000191086820F480700860086820F4007057
:101730000860086820F480500860086820F40050B1
:101740000860FFE742F60C00C4F2000001680020C8
:10175000C907009061B9FFE742F60C00C4F200002F
:10176000006800F00201012080EA51000090FFE7CC
:101770000098C00708B1FFE7E4E742F61C01C4F295
:101780000001086840F030000860086848F2000274
:10179000C8F280021043086042F62001C4F2000142
:1017A000086840F080300860FFF76AFF02B080BD33
:1017B0008AB0099008910792069342F60401C4F298
:1017C000000108680020086008984CF6CD42CCF66D
:1017D000CC42A0FB0230C00805900898A0FB02C3D1
:1017E000DB0803EB8303A0EB430004900798A0FB06
:1017F0000230C00803900798A0FB02C3DB0803EB8C
:101800008303A0EB430002900698A0FB0230C008BF
:1018100001900698A0FB0232D20802EB8202A0EBF4
:101820004200009001980005009A40EA0240099A9F
:1018300040EA4230039A40EA0230029A40EA02202B
:10184000059A40EA0210049A104308600AB07047F3
:101850008AB0099008910792069342F60001C4F2FB
:10186000000108680020086008984CF6CD42CCF6CC
:10187000CC42A0FB0230C00805900898A0FB02C330
:10188000DB0803EB8303A0EB430004900798A0FB65
:101890000230C00803900798A0FB02C3DB0803EBEB
:1018A0008303A0EB430002900698A0FB0230C0081F
:1018B00001900698A0FB0232D20802EB8202A0EB54
:1018C000420000900998059A40EA0250049A40EAC2
:1018D0000240039A40EA0230029A40EA0220019A4A
:1018E00040EA0210009A104308600AB070470000F6
:1018F00041F24C01C4F20201086840F001000860A6
:101900004FF09041086820F003000860086840F03C
:10191000020008602021C4F60001086820F00F00D2
:101920000860086840F0020008600C21C4F600015D
:10193000086820F0030008607047000041F2600171
:10194000C4F20201086840F48050086043F20001CC
:10195000C4F20101086840F008000860086820F03F
:101960001F000860086820F03F000860086840F227
:10197000FF7290430860086820F0FF000860086864
:1019800040F004000860086840F6FF729043086069
:10199000086840F480700860086840F400700860CF
:1019A000086840F0400008607047000041F24C01B8
:1019B000C4F20201086840F0010008604FF0904155
:1019C000086840F428400860086820F4A8400860CF
:1019D0002021C4F6000108680022C5F250521043CD
:1019E0000860704783B042F20001C4F20201086847
:1019F00020F007000860086840F00200086041F22B
:101A00000001C4F20201086840F480700860FFE73A
:101A100041F20000C4F2020000684005002801D431
:101A2000FFE7F5E71020029041F20401C4F2020141
:101A3000086820F0F8500860029A086840EA0260DE
:101A4000086041F20001C4F20201086820F08070D1
:101A50000860FFE741F20000C4F202000068800164
:101A6000002801D5FFE7F5E741F20C01C4F20201BD
:101A70000191086820F003000860086840F0020047
:101A800008600868142262F30E20086008680122CA
:101A900062F306100860086820F0C06008600868FB
:101AA00040F08070086041F20001C4F20201086851
:101AB00040F080700860FFE741F20000C4F20200CD
:101AC00000688001002801D4FFE7F5E741F2080132
:101AD000C4F20201086820F003000860086840F0C2
:101AE00003000860FFE741F20800C4F2020000684A
:101AF00000F00C000C2801D0FFE7F4E741F20801E8
:101B0000C4F20201086820F0F0000860086820F4C0
:101B1000E0600860086820F46050086041F200014D
:101B2000C4F20201086820F080600860FFE741F21B
:101B30000000C4F2020000684001002801D5FFE760
:101B4000F5E741F21001C4F202010091086820F4A7
:101B5000FE400860086840F4C0500860086840F41F
:101B600000300860086840F48030086041F20001ED
:101B7000C4F20201086840F080600860FFE741F2AB
:101B80000000C4F2020000684001002801D4FFE711
:101B9000F5E741F28801C4F20201086820F4400030
:101BA000086041F26001C4F20201086840F40010CC
:101BB000086003B07047000041F25801C4F202010E
:101BC000086840F00800086040F62042C4F20002B5
:101BD000106840F00100106040F60041C4F20001BE
:101BE000086820F01000086040F62843C4F20003A3
:101BF0002720186040F62C43C4F2000340F2CF7057
:101C0000186040F61843C4F2000318684FF68F7C42
:101C1000CFF6FE7C00EA0C001860186840F0200047
:101C20001860186840F040001860186840F008001C
:101C30001860106820F008001060106840F0040080
:101C4000106040F64442C4F20002106840F40040C4
:101C5000106040F63442C4F200026420106008684C
:101C600040F001000860704741F24C01C4F20201EB
:101C7000086840F00200086040F20042C4F600022A
:101C8000106820F440501060106840F4005010605C
:101C900040F22041C4F60001086820F0706008603E
:101CA000086840F0E0600860106820F44040106070
:101CB000106840F400401060086820F07040086030
:101CC000086840F0E040086040F20841C4F60001B6
:101CD000086840F440500860086840F440400860DC
:101CE00040F20441C4F60001086820F0400008609A
:101CF000086820F08000086040F20C41C4F6000142
:101D0000086820F440500860086840F4805008607B
:101D1000086820F440400860086840F4804008608B
:101D20007047000041F26001C4F20201086840F40B
:101D30008040086041F28801C4F20201086820F086
:101D400003000860086840F0010008607047000068
:101D500080B541F24C01C4F20201086840F0010074
:101D600008604FF0904EDEF8000020F03000CEF812
:101D70000000DEF8000040F02000CEF8000040F245
:101D8000200CC4F6000CDCF8000020F47060CCF8E5
:101D90000000DCF8000040F4E060CCF8000008230C
:101DA000C4F60003186840F0300018600422C4F63E
:101DB0000002106820F0040010600C21C4F600013D
:101DC000086820F030000860086840F010000860E3
:101DD000DEF8000020F0C000CEF80000DEF80000C1
:101DE00040F08000CEF80000DCF8000020F47040E5
:101DF000CCF80000DCF8000040F4E040CCF8000033
:101E0000186840F0C0001860106820F008001060EA
:101E1000086820F0C0000860086840F040000860D2
:101E200080BD000041F25801C4F20201086840F48C
:101E30000030086041F28801C4F20201086820F015
:101E40000C000860086840F004000860704700005B
:101E500082B0019001986421414344F62510C2F2FA
:101E60009240A1FB0020091A00EB5100800800906D
:101E7000FFE700980138009008B1FFE7F9E702B0EA
:101E80007047000081B000900099086820F00100C0
:101E900008600099086800F08050086000990868A0
:101EA00000F4805008600099086820F40040086041
:101EB0000099486820F440504860009942F28D0033
:101EC000C8600099086840F0080008600099086838
:101ED00040F0040008600099086840F001000860C4
:101EE00001B0704780B584B0039002910192002048
:101EF0000090FFE700980199884216D2FFE7FFE7BC
:101F00000398C0690006002801D4FFE7F8E70298AB
:101F10000099405C039908854FF4FA70FFF798FF29
:101F2000FFE7009801300090E4E7FFE70398C069FD
:101F30004006002801D4FFE7F8E70399C86920F0BC
:101F40004000C86104B080BD81B08DF803009DF9E8
:101F5000030000280ED4FFE79DF9031001F01F02D3
:101F6000012090404A094EF20011CEF2000141F8E2
:101F70002200FFE701B0704782B08DF807000091A2
:101F80009DF9070000280AD4FFE7009800019DF999
:101F900007104EF20042CEF2000288540BE0009887
:101FA00000019DF8071001F00F014EF61452CEF219
:101FB00000028854FFE702B07047000080B584B08B
:101FC0000390029103988DF8070044F20040C4F298
:101FD00000000DF107010122FFF784FF039804B010
:101FE00080BD000080B58AB000200990FFF7FAFCA0
:101FF000FFF74EFBFFF778FAFFF78AFB0220FFF7A7
:102000004DFAFFF775FCFFF7D7FD43F2F800C0F675
:102010000000FEF797F900F03FF9FFE708A800F08D
:10202000EBF860B3FFE79DF820209DF821309DF884
:1020300022009DF823C06946C1F804C0086043F23D
:102040002211C0F6000103A8FEF788F900200290D3
:10205000FFE7029844F23F21C0F20F01884205DCFD
:10206000FFE7FFE7029801300290F2E79DF82010A9
:1020700043F21110C0F60000FEF764F9FFE7CDE768
:1020800080B582B0142000F075F98DF807009DF836
:102090000700800728B9FFE71420032100F0E0F9CA
:1020A000FFE702B080BD000080B584B0039000213E
:1020B0008DF809100D2000F081F903999320087024
:1020C000039920204870039B69460DF106000860C3
:1020D0000C200222194600F0D7F98DF80B009DF86C
:1020E0000B00C00738B3FFE700208DF80A00FFE7B8
:1020F0009DF80A00032810DCFFE703989DF80A10FA
:10210000415C9DF8090048408DF80900FFE79DF803
:102110000A0001308DF80A00EAE79DF809000399EA
:102120009DF80A20895C884204D0FFE700208DF8E2
:102130000B00FFE7FFE79DF80B0000F0010004B083
:1021400080BD000080B586B005908DF81310039215
:102150000520042100F070F80A20802100F080F9A9
:1021600000208DF80B00FFE79DF80B009DF8131081
:1021700088420EDAFFE705989DF80B10415C0920B4
:1021800000F01CF9FFE79DF80B0001308DF80B0003
:10219000EAE70120032100F011F9FF208DF80B0080
:1021A000FFE7052000F0E6F88DF80A009DF80B0027
:1021B00001388DF80B00FFE79DF80B10002001900F
:1021C00049B1FFE79DF80A0000F00401012080EA10
:1021D00091000190FFE70198C0070028E1D1FFE7D7
:1021E000222000F0C7F803990870212000F0C2F8FF
:1021F0000399487006B080BD80B582B00190002080
:102200008DF803000199262000F0F4F88DF8030002
:102210009DF80300C00730B1FFE70198FFF744FFC6
:102220008DF80300FFE700F01BF89DF8030000F0B5
:10223000010002B080BD000080B582B08DF80700BB
:102240008DF806109DF80700009000F093F8014605
:1022500000989DF80620914300F0B0F802B080BDD0
:1022600080B584B050208DF80A0000208DF80B0056
:102270000DF10A000190821C0221FFF763FF019B10
:1022800069460DF10E0008600C200422194600F08A
:10229000FBF804B080BD000080B582B0FFF786FB7C
:1022A000FFF74CFB4FF09041086840F48030086025
:1022B000086820F40030086041F24C01C4F20201C9
:1022C000086840F00200086040F20041C4F60001D6
:1022D000086840F001000860086820F0020008600B
:1022E0001821C4F600014FF08070086000200190B2
:1022F000FFE7019848F29F61C0F20101884205DCC6
:10230000FFE7FFE7019801300190F2E71821C4F6DA
:1023100000014FF48070086000200090FFE70098F3
:1023200048F29F61C0F20101884205DCFFE7FFE748
:10233000009801300090F2E700F08CF82A2080210C
:1023400000F03CF82B20A92100F038F82D20E821DE
:1023500000F034F82C20032100F030F81520402143
:1023600000F02CF811203D2100F028F8FFF788FE3E
:1023700002B080BD80B584B08DF80F0000200190C0
:1023800000F0FAF99DF80F10802040EA41008DF826
:102390000F009DF80F000121029100F0C9F901988A
:1023A00002998DF80E000DF10E0000F09BF90298D5
:1023B00000F0E2F99DF80E0004B080BD80B582B057
:1023C0008DF807008DF80610002000F0D5F99DF873
:1023D00007107E2000EA41000221009100F0A8F9D8
:1023E00000999DF8060000F0A3F9012000F0C4F95F
:1023F00002B080BD80B584B08DF80F00029100203E
:102400008DF807000D200721FFF7D8FF9DF80F007A
:1024100002990870029B694601A808600C200122FD
:10242000194600F031F88DF807009DF80700C00745
:1024300028B1FFE7BDF80400102804D0FFE7002012
:102440008DF80700FFE79DF8070000F0010004B0D9
:1024500080BD000080B501200F21FFF7AFFF80BDD8
:1024600080B582B08DF807008DF806109DF8070042
:102470000090FFF77FFF014600989DF8062011436A
:10248000FFF79CFF02B080BD80B58CB0DDF838C08E
:102490008DF82E000A918DF82720089300208DF8E2
:1024A0001F008DF81E008DF81D009DF82E000146BE
:1024B00004910C280BD0FFE704980E280ED1FFE7FB
:1024C00012208DF81E0010208DF81D0007E07720E7
:1024D0008DF81E0030208DF81D0000E0FFE79DF80C
:1024E0001E0040F080010220FFF768FF04208021D9
:1024F0000291FFF7A1FE02990A20FFF7B1FF012028
:1025000000210391FFF75AFF0398ADF81800FFE789
:10251000BDF818009DF8271088420EDAFFE70A98E8
:10252000BDF81810415C0920FFF748FFFFE7BDF830
:1025300018000130ADF81800EAE79DF82E100120D0
:10254000FFF73CFF9DF82E000C2805D1FFE70D207A
:102550008021FFF785FFFFE76420ADF81800FFE753
:102560000420FFF707FF8DF81B00BDF818000138A5
:10257000ADF81800FFE7BDF818100020019089B1F0
:10258000FFE79DF81B100020C907019051B9FFE734
:102590009DF81B009DF81D100840B0FA80F040091E
:1025A0000190FFE70198C0070028D9D1FFE70D206F
:1025B0008021FFF741FEBDF81800002800F0878059
:1025C000FFE70620FFF7D6FE10F01B0F7AD1FFE7DA
:1025D00001208DF81F009DF81B009DF81E1008407B
:1025E000C00720B1FFE700208DF81F00FFE79DF82E
:1025F0002E000C2865D1FFE70A20FFF7BBFE8DF8FF
:102600001B009DF81B008DF817000C20FFF7B2FE91
:1026100000F007008DF81C009DF81C0050B1FFE78A
:102620009DF81B109DF81C0000EBC10008380E99A6
:10263000088005E09DF81B00C0000E990880FFE7A8
:102640009DF81B0020B9FFE701208DF81B00FFE774
:102650009DF81B00112804DBFFE710208DF81B00FC
:10266000FFE70020ADF81800FFE7BDF818009DF85F
:102670001B10884218DAFFE70920FFF77BFE8DF870
:1026800016009DF81700042807D1FFE79DF81600F3
:102690000899BDF818208854FFE7FFE7BDF8180037
:1026A0000130ADF81800E0E79DF81700042807D1C5
:1026B000FFE79DF81F0000F001008DF82F000DE0EE
:1026C000FFE703E000208DF81F00FFE7FFE79DF81C
:1026D0001F0000F001008DF82F00FFE79DF82F008C
:1026E0000CB080BD82B001900091FFE70098E8B186
:1026F000FFE743F20C01C4F2010100200860FFE78C
:1027000043F20800C4F201000068C00708B9FFE7FF
:10271000F6E743F20C00C4F20100006801994A1C7C
:1027200001920870009801380090DFE702B070470E
:1027300082B08DF807000091FFE743F20800C4F271
:102740000100006800F00200022801D0FFE7F4E772
:102750009DF8070043F20C01C4F201010870FFE785
:1027600043F20800C4F2010000680006002801D509
:10277000FFE7F5E702B0704781B08DF803009DF8E0
:102780000300C00748B1FFE740F21441C4F600015E
:10279000086840F00100086008E040F21441C4F607
:1027A0000001086820F001000860FFE701B07047F1
:1027B0005FEA400C08BF91F0000F4FEA8C234FEA0C
:1027C000C12243EA51514FEA1C5018BF00F5F040B6
:1027D0004FEA300018BF41F000415FEA6C5C00F046
:1027E0002980BCF1FF3F08BF40F080407047130CC8
:1027F00006BF12044FF0100C4FF0000C130E04BF74
:1028000012020CF1080C130F04BF12010CF1040C9E
:10281000930F04BF92000CF1020CD30F04BF5200BF
:102820000CF1010C11464FF00002A0F11F00A0EBCB
:102830000C00704711F0004F08BF704731F00041A5
:102840003FF4D5AF0B0C06BF09044FF0100C4FF04E
:10285000000C0B0E04BF09020CF1080C0B0F04BF97
:1028600009010CF1040C8B0F04BF89000CF1020C60
:10287000CB0F04BF49000CF1010CCCF1200322FA6C
:1028800003F341EA030102FA0CF2A0EB0C0000F1A1
:102890000100704723F07F4720F07F4C80EA03005F
:1028A00000F00040ACEB070303F57C5303F1FF039A
:1028B0002DE9804909B44FEA144324EA03484FEA5A
:1028C000154B25EA0B4E0FF2042606EB13273E7834
:1028D00003FB0667C7F5000707FB06F64FEAD64677
:1028E00006F102064FEA543707FB066CCCF1005C98
:1028F0004FEA1C472CEA074C0CFB06F507FB06F4D5
:1029000004EB15464FEA961649085FEA320234BFD7
:1029100000204FF000404FEAD13706FB07FC4FEA9A
:102920001C4C0CFB0BF7D21B03FB0CF761EB0701F4
:102930000CFB0EF7B0EB074072EB17420CFB08F7ED
:1029400034BFA2EB0742B2EB074261EB17414FEAFB
:102950000C444FEA910706FB07FC4FEA1C4C0CFBAA
:102960000BF7B0EBC74072EB573203FB0CF734BFE9
:10297000A2EBC742B2EBC74261EB57310CFB0EF73B
:10298000B0EBC70072EB57720CFB08F734BFA2EB39
:10299000C702B2EBC70261EB57714FEA816141EAAE
:1029A00092114FEA826242EA90124FEA806004EB91
:1029B000CC04039F4FEAD13706FB07FC4FEA1C4CBF
:1029C0000CFB0BF7D21B03FB0CF761EB07010CFBB5
:1029D0000EF7B0EB074072EB17420CFB08F734BF61
:1029E000A2EB0742B2EB074261EB17414FEA8C556D
:1029F00004EB9C244FEA910706FB07FC4FEA1C4CB2
:102A00000CFB0BF7B0EBC74072EB573203FB0CF734
:102A100034BFA2EBC742B2EBC74261EB57310CFBAC
:102A20000EF7B0EBC70072EB57720CFB08F734BF20
:102A3000A2EBC702B2EBC70261EB57714FEA8161AB
:102A400041EA92114FEA826242EA90124FEA8060B4
:102A500015EB4C2544F100044FEAD13706FB07FC87
:102A60004FEA1C4C0CFB0BF7D21B03FB0CF761EB82
:102A700007010CFB0EF7B0EB074072EB17420CFBA3
:102A800008F734BFA2EB0742B2EB074261EB1741F4
:102A90004FEA813141EA92414FEA823242EA904262
:102AA0004FEA80304FEA0C7615EB1C1544F1000418
:102AB00048EA03434EEA0B484FF0000EB2EB080C15
:102AC00071EB030724BF624639464EEB0E0E4FF002
:102AD000000B0018524149414BEB0B0BB2EB080CB9
:102AE00071EB03077BF1000B24BF624639464EEBC6
:102AF0000E0E4FF0000B0018524149414BEB0B0BEF
:102B0000B2EB080C71EB03077BF1000B24BF6246AC
:102B100039464EEB0E0E51EA020718BF46F0010689
:102B200016EB0E7655F1000254F1000103D5BDE815
:102B30008901BDE80088BDE88901BDE80048B619F3
:102B4000524141EB0101A3F10103704780807F7E78
:102B50007D7C7B7A79787776767574737271717013
:102B60006F6E6E6D6C6C6B6A6A69686867666665C5
:102B70006464636362616160605F5F5E5E5D5D5C53
:102B80005C5B5B5A5A5959585857575656555555C4
:102B90005454535352525251515050504F4F4F4E24
:102BA0004E4D4D4D4C4C4C4B4B4B4A4A4A49494972
:102BB00048484847474747464646454545444444B4
:102BC0004443434343424242424141419C46002BDD
:102BD00030D477002BD04FEA37071CB503B44FF041
:102BE00010004FF01001BAF1000F06D0BCF1000F39
:102BF000DCBF40F0080040F008014FF000000FBCBF
:102C0000BDE810400BF1010BBBF1010F08BF5FEAFB
:102C1000170722BF12F1010211F101014FF000412B
:102C200043F1000300F0004043EA00007047F9D38D
:102C30005708D0E746EA06464FEA164613F1400F1A
:102C40001FDD13F1200FDFBF16430A46002120339A
:102C50005B42BED0C3F1200746EA06464FEA16465D
:102C600002FA07F746EA070622FA03F2C3F1200741
:102C700001FA07F742EA070221FA03F14FF00003D5
:102C8000A7E746EA020646EA06464FEA164646EA3D
:102C90000106BCBF46EA0646360C4FF000034FF073
:102CA00000024FF0000194E72DE9804C70B49A4681
:102CB000934691E8380007C831EA400C48BF34EA2F
:102CC000430C03D5FFF7E6FDFFF780FFF0BCBDE83E
:102CD000008C2DE9804C70B49A46934691E83800F8
:102CE00007C810F0804F08BF13F0804F03D100F0E9
:102CF00005F8FFF76BFFF0BCBDE8008C20F07F47C4
:102D000023F07F4C80EA030000F0004007EB0C0347
:102D1000A3F57C53A3F1FE0392F0000F00F0B38003
:102D200095F0000F00F077802DE901494FEA11403E
:102D300021EA00484FEA144624EA064700FB06FC55
:102D400008FB06F607FB08F818EB06484CEB164C98
:102D500000FB07F718EB07484CEB17404FEA124B04
:102D600022EA0B4E4FEA154625EA06470BFB06FC06
:102D70000EFB06F607FB0EFE1EEB064E4CEB164C4A
:102D80000BFB07F71EEB074E4CEB174B18EB0B0832
:102D900040F1000018EB0E0B58EB000840F100006A
:102DA0008F1A4FF000014FF000063CBFC943661B6D
:102DB00014BFB5EB040C00213CBFC943F61B4FEA1E
:102DC000174427EA04454FEA1C472CEA074C04FB4A
:102DD000076205FB07F70CFB05F616EB074642EB0F
:102DE000174204FB0CFC16EB0C4642EB1C421BEB9F
:102DF000060658EB020241414EEA8E0E46EA9E0656
:102E000001D5BDE80189B619524141EB0101A3F199
:102E10000103BDE801894FEA144524EA05464FEA5B
:102E2000114721EA074C05FB07F406FB07F70CFBEB
:102E300006F111EB074144EB174405FB0CFC11EBC9
:102E40000C4144EB1C444FEA124722EA074C05FBB5
:102E500007F206FB07F70CFB06F616EB074642EBFC
:102E6000174205FB0CFC16EB0C4642EB1C456A189E
:102E700054F1000148BF7047B619524141EB0101BE
:102E8000A3F10103704795F0000F37D04FEA1142CC
:102E900021EA02464FEA144724EA074C02FB07F1F5
:102EA00006FB07F70CFB06F414EB074441EB174154
:102EB00002FB0CFC14EB0C4441EB1C414FEA1547A0
:102EC00025EA074C02FB07F506FB07F70CFB06F6A5
:102ED00016EB074645EB174502FB0CFC16EB0C46C0
:102EE00045EB1C42121951F1000148BF7047B61959
:102EF000524141EB0101A3F1010370474FEA144530
:102F000024EA05464FEA114721EA074C05FB07F181
:102F100006FB07F70CFB06F212EB074241EB1741E9
:102F200005FB0CFC12EB0C4251EB1C414FF0000670
:102F300048BF7047921841EB0101A3F101037047AC
:102F400003B401984100009850EAC12018BF042042
:102F50004A0D18BF40F0010040F2FF72B2EB515F22
:102F600008BF40F00200012808BF052002B07047EA
:102F700030380A2801D20120704700207047000035
:102F800010B500290AD00878002807D005487844F1
:102F9000FEF73EFA002801D0002010BD0248784418
:102FA00010BD0000BA010000B201000010B50029F8
:102FB0000AD00878002807D005487844FEF728FA98
:102FC000002801D0002010BD0248784410BD000048
:102FD000AA010000A2010000F1EE100A4FF6FF71F5
:102FE000C0F2C03120EA010040F04070E1EE100A6A
:102FF0007047FDF70EBEFDF745BF00000000000062
:103000000000000030313233343536373839414230
:10301000434445464030580030313233343536373A
:1030200038396162636465664030780004000008E6
:1030300000000000000000020001000010303132EA
:1030400033343536373839616263646566787000C9
:1030500030313233343536373839414243444546CE
:103060005850000002400000000000A000000000D6
:1030700005400000000000C8000000000C400000F7
:103080000000409C00000000194000000020BCBE71
:103090000000000034400000BFC91B8E0000000487
:1030A000B5400000504BCFD06607E2CF01000000D2
:1030B0006C4100003E8251AADFEEA73401000000FF
:1030C000D9420000DCB5A0E23A301F97FFFFFFFFB6
:1030D000B4450000FD25A0C8E9A3C14FFFFFFFFFD5
:1030E000FF3F00000000008000000000FF3F0000E4
:1030F00000000080000000004170706C6963617422
:10310000696F6E205374617274696E672E2E2E0A79
:103110000043617264206E756D6265722069733A56
:103120002000307825782030782578203078257870
:10313000203078257800000074320008000000205C
:10314000B8060000C40100081C0000004300000095
:10315000F8FFFFFF0C0000000E0000000F00000051
:103160002E0000001001000043000000F8FFFFFFE8
:10317000004040404040404040404141414141408A
:10318000404040404040404040404040404040403F
:1031900040050202020202020202020202020202CE
:1031A00002202020202020202020200202020202D3
:1031B000020290909090909010101010101010102B
:1031C0001010101010101010101010100202020237
:1031D000020288888888888808080808080808087B
:1031E0000808080808080808080808080202020277
:1031F000400000000000000000000000000000008F
:1032000000000000000000000000000000000000BE
:1032100000000000000000000000000000000000AE
:10322000000000000000000000000000000000009E
:10323000000000000000000000000000000000008E
:10324000000000000000000000000000000000007E
:10325000000000000000000000000000000000006E
:10326000000000000000000000000000000000005E
:04327000000000005A
:040000050800018965
:00000001FF
